:1016620052656275696C6420627900414B49716907
:101672007566656E67002020202020202020202013
:10168200005345543A2564004D656E753A4B34005B
:1016920074656D703A25640068756D693A25640059
:1016A2006572726F72210041442076616C75653AF1
:1016B2002564004D454E55002D2D2D2D2D2D2D2D02
:1016C2002D2D2D2D2D2D2D2D0020204B3120202094
:0A16D200204B322020204B33200073
:101864007BFF7A1679627540027D01E4FF1217B39B
:101874007BFF7A16796D7540027D047F301217B3B1
:101884007FE87E03121ABF7BFF7A167978754002CF
:101894007D01E4FF1217B37BFF7A16797875400255
:0718A4007D047F300217B341
:10100200752600752732753904E4F53A121AA812CA
:1010120013077F011219517526008F277F647E0006
:10102200121ABF121864121B438F38E5386070E53C
:101032003964017036E538B40211E52715277002CC
:101042001526AD27AC267F01121A45E538B40310E8
:101052000527E52770020526FDAC267F01121A45F9
:10106200E538640470397539048030E538B4010814
:10107200753901E4FF1218E4E538B4020875390243
:10108200E4FF1218E4E538B40308753903E4FF12EB
:1010920018E4E538B40408753904E4FF1218E4E5ED
:1010A200396401600302118AC28CF53E753F0075F6
:1010B2004024FB7A0079221214898F3AD28CE4FB05
:1010C200FD7F281218177B01E4FD7F381218177B69
:1010D20002E4FD7F48121817753EFF753F167540F2
:1010E200838526418527427B007A007928120D02EA
:1010F2007B007A0079287540027D047F481217B37D
:101102007BFF7A16798A7540017D077F561217B3E5
:10111200E53A7064753EFF753F167540928522412F
:10112200852342FB7A007928120D027B007A00792E
:10113200287540027D03E4FF1217B3753EFF753F29
:101142001675409A8524418525427B007A007928CC
:10115200120D027B007A0079287540027D05E4FFBA
:101162001217B3D3E5239527E52295264005121BD6
:10117200528015121B4E80107BFF7A1679A27540A1
:10118200027D03E4FF1217B3E539640270637B0B3F
:10119200FD7F181218177B0CE4FD7F281218177BAD
:1011A2000FE4FD7F381218177B10E4FD7F481218F8
:1011B200177B11E4FD7F581218177BFF7A16798A84
:1011C2007540017D077F561217B3E50F7007121B9A
:1011D200527B098005121B4E7B0A7D037F28121861
:1011E200177B0B7D037F501218177F647E00121A43
:1011F200BFE5396403600302128A7B0DFD7F18127A
:1012020018177B0EE4FD7F281218177B0FE4FD7F71
:10121200381218177B10E4FD7F481218177B11E46F
:10122200FD7F581218177BFF7A16798A7540017D67
:10123200077F561217B37FE41216DC753EFF753F27
:10124200167540A98E418F427B007A007928120DD3
:10125200027B007A0079287540027D057F10121703
:10126200B3E5107007121B527B098005121B4E7BDF
:101272000A7D037F281218177B0D7D037F501218F9
:10128200177F647E00121ABFE539640460030210FE
:1012920028121B4E7BFF7A1679B5754002E4FD7F5A
:1012A200301217B37BFF7A1679BA7540027D02E4D9
:1012B200FF1217B3E4FB7D04FF1218177B017D04B4
:1012C2007F101218177B027D047F201218177B0BE8
:1012D2007D047F381218177B0C7D047F4812181783
:1012E2007B0D7D047F601218177B0E7D047F7012C8
:1012F20018177BFF7A1679CB7540027D06E4FF1240
:0513020017B3021028E2
:03000B0002174A8F
:10174A00C0E0C0F0C083C082C0D075D000C000C065
:0D175A0001C002C003C004C005C006C007E6
:10176700758A33758CFE050EE50E7002050D1200A5
:1017770003C3E50E9428E50D94004015750D00751B
:101787000E001218ABA283E433F50FA284E433F5FD
:011797001041
:10179800D007D006D005D004D003D002D001D000A5
:0B17A800D0D0D082D083D0F0D0E0324F
:031B560001140077
:041B4E00E4F5142284
:041B520075140122E3
:08000300E514B40102B2A522CC
:101ABF00EF1FAC0670011E4C600B007D027CC7DC73
:051ACF00FEDDFC80EBD0
:011AD40022EF
:031B3400121B374A
:041B37007F02DFFE4C
:011B3B002287
:101AD500EF1FAC0670011E4C600B007D027CC7DC5D
:051AE500FEDDFC80EBBA
:011AEA0022D9
:101AEB00D280121B37C2807F197E00121AD5D2808A
:061AFB00121B34021B3730
:10197F00E4FEFD3080FD121B34121B37308015C37F
:10198F0074079DFF7401A807088002C333D8FC4277
:0A199F00062080FD0DBD08DBAF0639
:0119A900221B
:061489008B3B8A3C893D0B
:10148F00E4FBFA121AEBD280308003021531308060
:10149F00FD2080FD12197F7545008F4612197F754B
:1014AF0047008F4812197F7541008F4212197F75BF
:1014BF0043008F4412197F7549008F4AC280E4FAA6
:1014CF00FB121B370BBB00010AEB64074A70F2D209
:1014DF0080E5462548FFE5453547FEE5422FFFE508
:1014EF00413EFEE5442FFFE5433EFEEF654A7002A5
:1014FF00E549702C85460985480B85420A85440CC1
:10150F00AB3BAA3CA93D850AF0121409AB3EAA3F9A
:10151F00A940E48509F01214098E498F4A7F0022F1
:02152F007F013A
:011531002297
:051B4900000000002275
:101B1700D2A0D2A1121B49C2A0121B49C2A1021B0B
:011B27004974
:0C1B2800D2A1C2A0121B49D2A0021B498E
:1019AA00E4FFFED2A1121B4930A0160FBF00010EA0
:1019BA00D3EF94FAEE940040EF121B287E007F01C9
:0919CA0022C2A1121B49E4FEFF38
:0119D30022F1
:071B3C00D2A0D2A1C2A12238
:101A6900E4FEC2A10000EF30E704D2A08002C2A0C8
:101A79000000D2A10000C2A1EF25E0FF0EBE08E2DE
:011A8900223A
:1019FB00E4FFD2A00000FEEF25E0FFC2A100D2A1C0
:101A0B00000030A00543070180035307FE0EBE08FC
:051A1B00E6C2A100007D
:011A200022A3
:051B4300E4AF13F513EF
:011B4800227A
:101B0100E4FF20B1010F20B0027F0220B2027F0367
:051B110020B3027F0477
:011B160022AC
:1018AB00851112121B018F11E512B40107E511709E
:1018BB0003751301E512B40207E5117003751302EA
:1018CB00E512B40307E5117003751303E512B404B5
:0818DB0007E511700375130409
:0118E30022E2
:10000E000000000000000000002F000000000700AC
:10001E00070000147F147F1400242A7F2A12006226
:10002E0064081323003649552250000005030000D2
:10003E0000001C224100000041221C000014083E5A
:10004E0008140008083E0808000000A06000000820
:10005E000808080800006060000000201008040274
:10006E00003E5149453E0000427F40000042615132
:10007E004946002141454B31001814127F100027CC
:10008E0045454539003C4A4949300001710905038F
:10009E0000364949493600064949291E00003636C0
:1000AE000000000056360000000814224100001423
:1000BE001414141400004122140800020151090600
:1000CE0000324959513E007C1211127C007F494981
:1000DE004936003E41414122007F4141221C007FB2
:1000EE0049494941007F09090901003E4149497AC0
:1000FE00007F0808087F0000417F4100002040413A
:10010E003F01007F08142241007F40404040007FA5
:10011E00020C027F007F0408107F003E4141413EE9
:10012E00007F09090906003E4151215E007F091931
:10013E0029460046494949310001017F0101003F2E
:10014E004040403F001F2040201F003F4038403FAE
:10015E000063140814630007087008070061514912
:10016E00454300007F41410000552A552A550000A5
:10017E0041417F0000040201020400404040404023
:10018E00000001020400002054545478007F4844BB
:10019E00443800384444442000384444487F0038F2
:1001AE005454541800087E0901020018A4A4A47C1B
:1001BE00007F080404780000447D400000408084E5
:1001CE007D00007F102844000000417F4000007C2D
:1001DE0004180478007C0804047800384444443839
:1001EE0000FC242424180018242418FC007C080485
:1001FE00040800485454542000043F444020003C5E
:10020E004040207C001C2040201C003C4030403CE4
:10021E00004428102844001CA0A0A07C0044645474
:10022E004C441414141414140000000000000000B8
:10023E000000000000000000000000F800000000B8
:10024E00000000333000000000100C06100C0600F9
:10025E00000000000000000040C07840C078400060
:10026E00043F04043F040400007088FC08300000C2
:10027E00001820FF211E0000F008F000E01800001A
:10028E0000211C031E211E0000F0088870000000D3
:10029E001E2123241927211010160E000000000025
:1002AE000000000000000000000000E01804020042
:1002BE00000000071820400000020418E0000000B3
:1002CE000040201807000000404080F080404000B1
:1002DE000202010F01020200000000F00000000007
:1002EE000101011F010101000000000000000000DB
:1002FE0080B0700000000000000000000000000050
:10030E0000010101010101010000000000000000D8
:10031E000030300000000000000000008060180473
:10032E00006018060100000000E010080810E00050
:10033E00000F102020100F00001010F80000000019
:10034E000020203F20200000007008080888700060
:10035E0000302824222130000030088888483000E0
:10036E000018202020110E000000C02010F8000000
:10037E0000070424243F240000F808888808080099
:10038E000019212020110E0000E0108888180000AE
:10039E00000F112020110E0000380808C838080080
:1003AE000000003F00000000007088080888700000
:1003BE00001C222121221C0000E010080810E00081
:1003CE000000312222110F00000000C0C00000000A
:1003DE00000000303000000000000080000000002F
:1003EE000000806000000000000080402010080027
:1003FE0000010204081020004040404040404000F0
:10040E0004040404040404000008102040800000CA
:10041E000020100804020100007048080808F000CF
:10042E000000003036010000C030C828E810E0009F
:10043E000718272423140B000000C038E00000002A
:10044E00203C23020227382008F888888870000094
:10045E00203F202020110E00C03008080808380068
:10046E00071820202010080008F808080810E000DF
:10047E00203F202020100F0008F88888E808100080
:10048E00203F20202320180008F88888E808100054
:10049E00203F200003000000C0300808083800008C
:1004AE0007182020221E020008F808000008F8088D
:1004BE00203F210101213F20000808F80808000014
:1004CE000020203F2020000000000808F808080047
:1004DE00C08080807F00000008F888C028180800BF
:1004EE00203F20012638200008F8080000000000F8
:1004FE00203F20202020300008F8F800F8F80800EF
:10050E00203F003F003F200008F830C00008F808E8
:10051E00203F200007183F00E01008080810E000F8
:10052E000F10202020100F0008F808080808F0000F
:10053E00203F210101010000E01008080810E00032
:10054E000F18242438504F0008F8888888887000C7
:10055E00203F2000030C3020007088080808380067
:10056E000038202121221C00180808F8080818005D
:10057E000000203F2000000008F808000008F808DE
:10058E00001F202020201F000878880000C838088F
:10059E00000007380E010000F80800F80008F80007
:1005AE00033C0700073C03000818688080681808A1
:1005BE0020302C03032C30200838C800C83808001F
:1005CE000000203F2000000010080808C83808006E
:1005DE002038262120201800000000FE0202020012
:1005EE000000007F40404000000C30C000000000C2
:1005FE00000000010638C00000020202FE000000EA
:10060E00004040407F00000000000402020204008F
:10061E0000000000000000000000000000000000CC
:10062E0080808080808080800002020400000000B4
:10063E0000000000000000000000808080800000AC
:10064E000019242222223F2008F80080800000009A
:10065E00003F112020110E0000000080808000005D
:10066E00000E112020201100000000808088F8006C
:10067E00000E112020103F2000008080808000009E
:10068E00001F222222221300008080F08888881802
:10069E000020203F2020000000008080808080000D
:1006AE00006B94949493600008F8008080800000A2
:1006BE00203F210000203F2000809898000000007D
:1006CE000020203F202000000000008098980000AD
:1006DE0000C08080807F000008F8000080808000CD
:1006EE00203F24022D302000000808F800000000F2
:1006FE000020203F202000008080808080808000AD
:10070E00203F20003F20003F80800080808000003E
:10071E00203F210000203F200000808080800000CC
:10072E00001F202020201F008080008080000000FD
:10073E0080FFA12020110E0000000080808080002C
:10074E00000E112020A0FF8080808000808080001D
:10075E0020203F212000010000008080808080004A
:10076E000033242424241900008080E080800000BF
:10077E000000001F2020000080800000008080000C
:10078E00001F202020103F2080808000008080806D
:10079E0000010E30080601008080008000808080FD
:1007AE000F300C030C300F00008080008080800022
:1007BE000020312E0E31200080808000008080804D
:1007CE0080818E70180601000080808080808000FD
:1007DE000021302C2221300000000000807C02021B
:1007EE0000000000003F404000000000FF0000003D
:1007FE0000000000FF0000000002027C80000000EC
:10080E000040403F00000000000601010202040407
:10081E0000000000000000001060028C0000FE923C
:10082E0092929292FE000000000000000000000074
:10083E00000000000000000004047E01407E4242E1
:10084E007E427E42427E400000000000000000001A
:10085E0000000000000000001060028C00FE92926A
:10086E0092929292FE000000000000000000000034
:10087E00000000000000000004047E014448507F88
:10088E0040407F504844400000000000000000003F
:10089E0000000000000000000000FC242424FC25C1
:1008AE002624FC2424240400000000000000000084
:1008BE00000000000000000040308F80844C552561
:1008CE002525554C808080000000000000000000AF
:1008DE00000000000000000000003E2222BE622246
:1008EE00223E22223E000000000000000000000018
:1008FE000000000000000000808484424549312140
:10090E0011090503000000000000000000000000B7
:10091E00000000000000000000E000FF1020F116B3
:10092E0010101814F300000000000000000000007A
:10093E000000000000000000010000FF80402119AF
:10094E0007013F4141407000000000000000000020
:10095E0000000000000000000444249484BCC586FE
:10096E0084BC841424440400000000000000000035
:10097E0000000000000000000020202F28292A2857
:10098E00280A4B88780000000000000000000000DC
:10099E00000000000000000000FE225A8608886851
:1009AE00180FE8080808080000000000000000000A
:1009BE00000000000000000000FF04080720110DD9
:1009CE0041817F0105093000000000000000000099
:1009DE00000000000000000000109092523212FE43
:1009EE001231519190100000000000000000000034
:1009FE00000000000000000001818040310F010165
:100A0E00014D8B483801010000000000000000007D
:100A1E00000000000000000020102CE724240042FB
:100A2E0062D24AC642C00000000000000000000072
:100A3E0000000000000000000101017F21110044B0
:100A4E0022114C83403F0000000000000000000017
:100A5E00000000000000000004040484E43C27248D
:100A6E00242424E40404040000000000000000001C
:100A7E00000000000000000004020100FF09090947
:100A8E000949897F000000000000000000000000FE
:100A9E0000000000000000000040424242C27E42C0
:100AAE00C242424240400000000000000000000030
:100ABE000000000000000000804020100C03000029
:100ACE003F40404040700000000000000000000069
:100ADE0000000000000000000000C038000000FF11
:100AEE000000402018000000000000000000000080
:100AFE00000000000000000080814020100C030068
:100B0E00030C102040808000000000000000000058
:100B1E000000000000000000807000FF1008209010
:100B2E0088874404948C80000000000000000000C0
:100B3E00000000000000000080601807083000FF71
:100B4E00444440404444FF00000000000000000008
:100B5E000000000000000000807000FF1008FE4240
:100B6E004242FA424242FE00000000000000000035
:100B7E000000000000000000806018070810FF5001
:100B8E00484641424C40FF000000000000000000BB
:100B9E000000000000000000100C055555D5057F23
:100BAE000555555505140C0000000000000000000E
:100BBE0000000000000000001010108AA96B3525FF
:100BCE0025ABE90810101000000000000000000026
:100BDE000000000000000000101010FF109000FE3A
:100BEE0082828292A29E000000000000000000009F
:100BFE0000000000000000000444827F010000FF9E
:100C0E0080432C102C4380000000000000000000E8
:100C1E00000000000000000012EAAFAAEA0FFA027C
:100C2E00888C5724548C84000000000000000000C3
:100C3E0000000000000000000202EAAAAAABAAAB64
:100C4E00AAAAAAAAEA020200000000000000000000
:100C5E00000000000000000080809E9292929EE0B4
:100C6E00809EB2D2929E8000000000000000000024
:100C7E0000000000000000000808F4949292F100B9
:100C8E0001F2929494F808000000000000000000A9
:080C9E0000000000000000004E
:101A8A00D3EF9400EE940040147D707C00ED1D703D
:0D1A9A00011CED4C70F7EF1F70E61E80E39D
:011AA700221C
:10191D00F583E582253EF582E43583F583E493FF77
:02192D007D40FB
:10192F008F498D4A121B177F78121A691219AAAFA5
:10193F004A121A691219AAAF49121A691219AA0280
:02194F001B2853
:0218E4008F3B38
:1018E600E4F53CE53C24B0FFE4FD12192FE4FD7F4E
:1018F6001012192FE4FDFF12192FE4F53D7D40AFBC
:101906003B12192F053DE53DC3948040F0053CE5AB
:061916003CC3940840CD23
:01191C0022A8
:101A21008F48ED24B0FFE4FD12192FE54854F0C4AE
:101A3100540F4410FFE4FD12192FE548540FFFE441
:041A4100FD02192F5A
:101307007FC87E00121A8AE4FD7FAE12192FE4FD12
:10131700FF12192FE4FD7F1012192FE4FD7F4012F1
:10132700192FE4FD7FB012192FE4FD7F8112192FC9
:10133700E4FD7FFF12192FE4FD7FA112192FE4FDB1
:101347007FA612192FE4FD7FA812192FE4FD7F3F16
:1013570012192FE4FD7FC812192FE4FD7FD312194C
:101367002FE4FDFF12192FE4FD7FD512192FE4FD9D
:101377007F8012192FE4FD7FD812192FE4FD7F0516
:1013870012192FE4FD7FD912192FE4FD7FF11219ED
:101397002FE4FD7FDA12192FE4FD7F1212192FE4D3
:1013A700FD7FDB12192FE4FD7F3012192FE4FD7F3B
:1013B7008D12192FE4FD7F1412192FE4FD7FA4125B
:1013C700192FE4FD7FA612192FE4FD7FAF12192F05
:0513D700E4FF0218E430
:041532008F428D4314
:10153600E4F546EB24E0F546E54524FE603104601B
:10154600030215D5AD43AF42121A21E4F54775F0F3
:1015560006E546A4240EF582E5F03400F583E5821F
:1015660025471219230547E547C3940640E022ADF7
:1015760043AF42121A21E4F54775F010E546A4255B
:1015860047F582E435F0F583E5822436F582E58376
:1015960034021219280547E547C3940840DBE543A2
:1015A60004FDAF42121A21E4F54775F010E546A492
:1015B6002547F582E435F0F583E582243EF582E59C
:0F15C6008334021219280547E547C3940840DB18
:0115D50022F3
:0A17B3008F3B8D3C8B3D8A3E893F41
:1017BD00E4F541AB3DAA3EA93F85418275830012F8
:1017CD0013DCFB6044854045AD3CAF3B121532E563
:1017DD0040B4010474068007E540B4020674082580
:1017ED003BF53BE53BD3947A400AE540B40105E473
:1017FD00F53B053CE53BD39478400AE540B4020542
:09180D00E4F53B053C054180AA0D
:0118160022AF
:061817008F3B8D3C8B3D70
:10181D00121A21E4F53E75F040E53DA42426F5822B
:10182D00E5F0340812191D053EE53EC3941040E65F
:10183D00E53C04FDAF3B121A21E4F53E75F040E5A1
:10184D003DA42446F582E5F0340812191D053EE548
:06185D003EC3941040E6BA
:011863002262
:101AA8005389F0438901758A33758CFEC28DD28CB7
:071AB800D2A9D2AFC2B9228E
:0216DC00AD0758
:1016DE00E4F53BF53CC2B5C2B6FB74807E00A803B0
:1016EE00088006CEA2E713CE13D8F8FFEDF582EFF1
:1016FE00558224FF92B4D2B6C2B60BBB08DCE4FB13
:10170E00D2B6C2B630B714E47E80A803088005CEE8
:10171E00C313CE13D8F9423CEE423B0BBB10E1D2C1
:10172E00B5ED30E306E53BFF7E0022E53BC4F85401
:0B173E00F0C868FEE53CC4540F48FFF3
:01174900227D
:101A45008F3B8C3C8D3D121B177FA0121A69121912
:101A5500AAAF3B121A691219AAAF3D121A691219D7
:041A6500AA021B288E
:021951008F3BCA
:10195300121B177FA0121A691219AAAF3B121A6938
:101963001219AA121B177FA1121A691219AA1219A6
:0B197300FB8F3C121B3C121B28AF3CFA
:01197E002246
:030000000215D610
:0C15D600787FE4F6D8FD75814E02161DEA
:1013DC00BB010CE58229F582E5833AF583E02250C6
:1013EC0006E92582F8E622BBFE06E92582F8E22210
:0D13FC00E58229F582E5833AF583E493222A
:10140900BB010A89828A83F0E5F0A3F0225006F72E
:0F14190009A7F01922BBFE06F3E5F009F319222B
:100CA600E54A243EF8E6054A22783B300702783EBC
:100CB600E475F0011214530214282000EB7F2ED2A3
:100CC600008018EF540F2490D43440D4FF30040B26
:100CD600EF24BFB41A0050032461FFE54B600215F0
:100CE6004B054EE54E7002054D30070D783BE47519
:100CF600F001121453EF0214410219D47403D207FF
:100D06008003E4C207F54A8B3B8A3C893DE4F54BF8
:100D1600F54DF54EE54B60077F20120CE180F57529
:100D26004CFFC201C200C202C203C205C206C2080B
:100D3600120CAFFF700D3007057F00120CF2AF4E9C
:100D4600AE4D22B4255FC2D5C204120CAFFF24D02B
:100D5600B40A00501A75F00A784B30D50508B6FF6C
:100D66000106C6A426F620D5047002D20380D92433
:100D7600CFB41A00EF5004C2E5D204020EF2D2013B
:100D860080C6D20080C0D20280BCD2D580BAD2053D
:100D960080B47F20120CE12002077401B54B00409D
:100DA600F1120CA6FF120CE1020D1AD208D206802F
:100DB60095120CA6FB120CA6FA120CA6F94A4B7059
:100DC6000679C37A0F7BFF20022EE54B602A7E0050
:100DD6008E827583001213DC60060EEE654C70F091
:100DE600C2D5EBC0E0EAC0E0E9C0E0EE120F39D0B0
:100DF600E0F9D0E0FAD0E0FB121428FF60AAEBC0BD
:100E0600E0EAC0E0E9C0E0120CE1D0E02401F9D04C
:100E1600E03400FAD0E0FBE54C0460DCD54CD98028
:100E2600877BFF7A0F7935D202809C791080027910
:100E360008C206C2088008D2D5790A8004790AC297
:100E4600D5E54C047002F54CE4FAFDFEFF120CA643
:100E5600FC7B08200113120CA6FD7B1030000A1241
:100E66000CA6FE120CA6FF7B20EC3382D592D55041
:100E760013C3E43000069FFFE49EFEE42001039DB9
:100E8600FDE49CFCE4CBF8C201EC700CCFCECDCCDB
:100E9600E824F8F870F38017C3EF33FFEE33FEED66
:100EA60033FDEC33FCEB33FB994002FB0FD8E9EB47
:100EB600300105F8D0E0C448B201C0E00AEC4D4E5E
:100EC6004F78207B0070C2EAB54C0040BCC0E012EF
:100ED6000F3BD0F0D0E0200104C4C0E0C4B201C092
:100EE600F0120CCAD0F0D5F0EB020D1A1214630DF5
:100EF600B7530E31580D884C0D84420E354F0E3DBA
:0F0F0600440E3D490D9D430E43550E27460E27C1
:100F1500450E27470FE3500D8C2D0D902E0DB32B4D
:100F25000D94230DB1200FCC2A0D4C4800000DABBC
:100F35003F3F3F00790AA2D5200314300509B910B7
:100F4500020404B9080104A2D520060250010420B8
:100F550002689202B54B005034C0E07F203003197F
:100F65007F30A20272067205500F120F92C202C2A2
:100F750006C205C2087F30800F300503E9C0E012C4
:100F85000CE1300503D0E0F9D0E0B54BCC300517C6
:100F95007F30B9100C120CE17F583004077F788040
:100FA50003B90803120CE13002057F2D020CE17F25
:100FB500202008F87F2B2006F322920280CF286E8E
:100FC500756C6C2900D201120CA63001F8C20178AB
:100FD5004B30D50108F6020D4C2D50434958120CE3
:100FE500A62403B405004001E4900FDE93120CD251
:0D0FF500743A120CD2D203754B04020E3177
:1015E200021002E493A3F8E493A34003F68001F20D
:1015F20008DFF48029E493A3F85407240CC8C3330A
:10160200C4540F4420C8834004F456800146F6DFD8
:10161200E4800B0102040810204080901B56E47EF7
:10162200019360BCA3FF543F30E509541FFEE493CD
:10163200A360010ECF54C025E060A840B8E493A394
:10164200FAE493A3F8E493A3C8C582C8CAC583CABF
:10165200F0A3C8C582C8CAC583CADFE9DEE780BE77
:011B5900008B
:10142800BB010689828A83E0225002E722BBFE02C2
:09143800E32289828A83E49322F5
:10144100BB010689828A83F0225002F722BBFE018A
:02145100F32284
:10145300FAE6FB0808E6F925F0F618E6CA3AF6229A
:10146300D083D082F8E4937012740193700DA3A318
:1014730093F8740193F5828883E47374029368602C
:06148300EFA3A3A380DF2C
:1019D400EFB40A07740D1219DF740A309811A8992C
:1019E400B8130CC2983098FDA899C298B811F63073
:0719F40099FDC299F599224B
:00000001FF
